:020000040800F2
:100000001005002001010008812300086D1E000872
:100010007D230008ED060008712A0008000000009A
:10002000000000000000000000000000652A000839
:10003000ED0A000800000000612A0008692A000893
:100040001B0100081B0100081B0100081B01000820
:100050001B0100081B0100081B0100081B01000810
:100060001B0100081B0100081B0100081B01000800
:100070001B0100081B0100081B0100081B010008F0
:100080001B0100081B0100081B0100081B010008E0
:100090001B0100081B0100081B0100081B010008D0
:1000A0001B0100081B0100081B0100081B010008C0
:1000B0001B0100081B0100081B0100081B010008B0
:1000C0001B0100081B0100081B0100081B010008A0
:1000D0001B0100081B0100081B0100081B01000890
:1000E0001B0100081B0100081B010008DFF80CD0F1
:1000F00000F0EAFA00480047D52C0008100500205F
:100100000648804706480047FEE7FEE7FEE7FEE7B1
:10011000FEE7FEE7FEE7FEE7FEE7FEE76D2A0008E2
:10012000ED0000082DE9FE4F804681EA0300C00F74
:100130000C46009021F0004123F00045B8EB02008E
:10014000A94105D24046214690461C460B46024630
:1001500023F00040104347D0270DC7F30A00C3F334
:100160000A510290401A019040286BDAC3F3130041
:1001700040F4801B0098924620B10023D2EB030A82
:1001800063EB0B0B01985946C0F14002504600F05A
:10019000D6F906460D4650465946019A00F0EEF94A
:1001A00010EB08006141002487EA115284EAE773EA
:1001B0001A4340D0009A62B3019A012A4FEA0752CB
:1001C00015DC001B61EB02014FF0004202EA07520E
:1001D000CDE90042001C41F5801132462B4600F06B
:1001E00025FA03B0BDE8F08F40462146F9E7001B31
:1001F00061EB0201001C41F5801300185B412018DF
:10020000A2F5001747EB030140EAD570B6196D411E
:1002100011E06D084FEA360645EAC0754FEA07520D
:10022000001B61EB0201001C41F5801149084FEAF7
:1002300030000019514132462B4603B0BDE8F04F63
:1002400000F0E5B90098012240000023D0EB020243
:1002500063EBE073009821464FEAE074B8EB0000CE
:1002600061EB0401E9E783F000435BE781F00041C3
:1002700058E72DE9FE4F81EA030404F0004421F021
:10028000004100944FF0000B23F0004350EA0104BA
:100290005ED052EA03045BD0C3F30A54C1F30A559B
:1002A0002C44A4F2F3340194A0FB0254C1F31301D3
:1002B00041F48011C3F3130343F4801301FB0244A0
:1002C00000FB034E840A970A44EA815447EA8357A5
:1002D000A4FB076802958D0A05FB07854FEA932C5E
:1002E00004FB0C542705029D4FEA065847EA1637CF
:1002F000B5EB08056EEB070C870E920E47EA8117E7
:1003000042EA8312A7FB0201B6EB0B0164EB000487
:100310002B0D43EA0C335E1844EB1C50DA46514671
:10032000E7FB0201C5F313044FEA0B3343EA14530E
:100330004FEA0432019C43EA0603A4F10C04029440
:10034000009CCDE900B400F071F903B0BDE8F08F76
:1003500000200146F9E72DE9F04D81EA030404F09D
:10036000004B21F0004514464FF0000A23F00041F5
:1003700050EA050220D054EA01021DD0C5F30A5705
:100380000246C5F31303C1F31300C1F30A5640F448
:10039000801543F48013A7EB0608101BD64608F21D
:1003A000FD3873EB050002D308F1010801E0921853
:1003B0005B41B8F1000F03DA00200146BDE8F08D83
:1003C00000204FF48011064684460EE0171B73EBA5
:1003D000050705D3121B63EB050306434CEA010C2A
:1003E00049084FEA300092185B4150EA0107EDD10D
:1003F00052EA030012D082EA040083EA05010843AE
:1004000005D0101BAB4106D20122002306E00022DA
:100410004FF0004302E06FF0010253101AEB0600A8
:100420004CEB085110EB0A0041EB0B01BDE8F04D1D
:1004300000F0EDB80EB5C10F80EAE0700844CA07BD
:10044000002140F233438DE80E000A460B4600F0CF
:10045000EDF803B000BD0EB540F23341029100212A
:10046000CDE900110A460B4600F0E0F803B000BDEC
:1004700000F0004220F00040C10DC0F3160040F42F
:1004800000007F2901DA00207047962903DCC1F1C2
:100490009601C84001E096398840002AF4D04042D5
:1004A000704770B5C1F30A5201F000450024C1F352
:1004B000130140F2FF3341F480119A4201DA002027
:1004C00070BD40F233439A42A2F2334203DC5242FF
:1004D00000F044F800E090402C43F1D0404270BD61
:1004E00000F0004230F000400AD0C10D01F560710B
:1004F000C0F3160042EA0151C20840071143704799
:1005000000200146704701F0004330B421F0004163
:1005100050EA010206D00A0DA2F56072C1F3130180
:10052000002A02DC30BC00207047440F44EAC104BA
:10053000C100E01830BC00EBC25000F031B8202AF6
:1005400004DB203A00FA02F1002070479140C2F12A
:10055000200320FA03F3194390407047202A04DB5C
:10056000203A21FA02F00021704721FA02F3D0402C
:10057000C2F120029140084319467047202A06DB49
:10058000CB17203A41FA02F043EAE07306E041FA61
:1005900002F3D040C2F1200291400843194670474F
:1005A0000029A8BF7047401C490008BF20F0010087
:1005B000704710B4B0FA80FC00FA0CF050EA010465
:1005C00004BF10BC704749B1CCF1200421FA04F4F7
:1005D00011FA0CF118BF012121430843A3EB0C01D0
:1005E000CB1D4FEA00614FEA102042BF002010BC33
:1005F000704700EBC35010440029A4BF10BC7047E3
:10060000401C490008BF20F0010010BC704710B525
:10061000141E73F1000408DA401C41F10001921825
:100620005B411A4301D120F0010010BD2DE9F04DCE
:1006300092469B4611B1B1FA81F202E0B0FA80F223
:1006400020329046FFF77BFF04460F4640EA0A003F
:1006500041EA0B0153465A46084313D0114653EA68
:10066000010019D0C8F140025046FFF777FF054658
:100670000E46504659464246FFF761FF084305D0F3
:10068000012004E020463946BDE8F08D00200543F6
:1006900046EAE0762C4337430A986305E40AA0EB68
:1006A00008000022FD0A44EA47540A3002D500201F
:1006B0000146E9E7010510196941DDE9084500191E
:1006C0006941BDE8F04DA2E7064C074D06E0E06841
:1006D00040F0010394E8070098471034AC42F6D389
:1006E000FFF708FDF455000814560008FEE7000067
:1006F000B0B584B04FF400400090002040F60004F4
:1007000001900120C4F20104029003200390694685
:10071000204600F035FA20464FF4004100F03EFB41
:10072000A0B100200546012000F0FCF920464FF45E
:10073000004100F033FB18B1C72D05F10100F1D3E2
:10074000C62D03D9012004B0B0BD00BF20464FF430
:10075000004100F023FB18B1002004B0B0BD00BF81
:10076000002000BF0546012000F0DCF920464FF4D0
:10077000004100F013FB18B9EF2D05F10100F1D392
:100780000020EE2D88BF012004B0B0BDF0B585B0CB
:1007900040F60004C4F201044FF40045012603278B
:1007A00001A920460195CDE90266049700F0E8F919
:1007B00020464FF40041002200F0F6FA40F2EE200D
:1007C00000F0B0F920464FF40041012200F0ECFAAD
:1007D0000F2000F0A7F9FFF78BFFCC2000F098F86E
:1007E000442000F095F801A92046CDE90156CDE955
:1007F000036700F0C5F920464FF40041002200F0E5
:10080000D3FA40F2EE2000F08DF920464FF400417B
:10081000012200F0C9FA0F2000F084F9FFF768FF09
:10082000CC2000F075F8BE2000F072F800F020F83F
:10083000044600F01DF844EA002100F0F80000240E
:100840004A42F82808BF91B2C3F6B074084604BF04
:100850000024CBF6B074FFF7EDFD02460B460020F6
:100860002146FFF706FDFFF74EFE05B0F0BD000084
:100870002DE9F04F85B040F60004C4F201040125D3
:100880004FF4004A4FF0030B0DF1040800264FF01F
:10089000010900BF20464146CDE901A5CDE9035B32
:1008A00000F06EF920464FF40041002200F07CFA7F
:1008B000022000F037F920464FF40041012200F0F9
:1008C00073FA002002A981E8210820464146CDF8AC
:1008D00004A000F055F90C2000F024F920464FF454
:1008E000004100F05BFA074600284FF0320018BFC5
:1008F000012700F017F9C6F3460040EAC716B9F120
:10090000080F09F10109C5D3304605B0BDE8F08FE5
:100910002DE9F04385B007464FFA80F84FF40040C8
:100920000190012040F60004CDE902000320C4F24A
:100930000104049001A9204600F022F920464FF45A
:100940000041002207F0010500F02EFA02204FF0CE
:100950000209002D08BF3C2000F0E4F820464FF4C7
:100960000041012200F020FA3C203C26002D08BF67
:10097000022000F0D7F820464FF40041002207F093
:10098000020500F011FA0220002D08BF3C2000F003
:10099000C9F820464FF40041012200F005FA3C203E
:1009A000002D08BF022000F0BDF820464FF40041A2
:1009B000002207F0040500F0F7F90220002D08BF1F
:1009C0003C2000F0AFF820464FF40041012200F037
:1009D000EBF93C20002D08BF022000F0A3F82046D0
:1009E0004FF40041002207F0080500F0DDF9022075
:1009F000002D08BF3C2000F095F820464FF4004140
:100A0000012200F0D1F93C20002D08BF022000F0A7
:100A100089F820464FF40041002207F0100500F04D
:100A2000C3F90220002D08BF3C2000F07BF82046CF
:100A30004FF40041012200F0B7F93C20002D08BF1F
:100A4000022000F06FF820464FF40041002207F02A
:100A5000200500F0A9F90220002D08BF3C2000F07D
:100A600061F820464FF40041012200F09DF93C203E
:100A7000002D08BF022000F055F820464FF4004139
:100A8000002207F0400500F08FF90220002D08BF7A
:100A90003C2000F047F820464FF40041012200F0CE
:100AA00083F93C20002D08BF022000F03BF82046CF
:100AB0004FF40041002200F077F9B8F1FF3FC8BFC2
:100AC0004FF03C09484600F02DF820464FF4004115
:100AD000012200F069F9B8F1FF3FC8BF0226304695
:100AE00000F020F805B0BDE8F0830000704700007A
:100AF000EFF3108072B600BFFEE70000B0B5044609
:100B000000F058F9054640F20000C2F200000078FB
:100B1000611C18BF044400BF00F04CF9401BA04208
:100B2000FAD3B0BDB0B540F27C046FF00501C2F25B
:100B30000004081A216885B220464D6200F092FF39
:100B40004FF6F970854213D820684FF6FA7100BF4E
:100B5000426A92B28A420BD2426A92B28A4207D267
:100B6000426A92B28A4203D2426A92B28A42EFD376
:100B700040F27C00C2F20000BDE8B04000F0A6BF29
:100B80002DE9F04F82B00E68002E00F0038140F294
:100B90000C4C41F200424FF6FF7EC4F2010CC4F24D
:100BA0000102042700240123C1F2100E4FF0000AB5
:100BB0004FF00009904208BF0327009745E000BFAF
:100BC000012704F00C030F229A402BEA020207FAD5
:100BD00003F34FEA9A051A4346F82520D1F804B0EA
:100BE00040F20045C4F201055FEACB322A6854BFE7
:100BF00022EA080242EA08022A606A685FEA8B3346
:100C000054BF22EA080242EA08026A605FEACB2384
:100C1000AA6854BF22EA080242EA08025FEA8B236C
:100C2000AA60DCF800204FF0010354BF22EA08025A
:100C300042EA0802CCF800200E680AF1010A36FAEE
:100C40000AF204F1040400F0A58003FA0AF816EA97
:100C5000080FF1D04E68764512DC122E56D8DFE828
:100C600006F0350B4549555555555555555555556E
:100C70005555554D510000BFD1F80C9046E000BFCE
:100C80004FF6FF72C1F2210296420FDC0022C1F240
:100C9000110296421AD00022C1F21202964215D0D9
:100CA0000022C1F22102964210D02FE00022C1F2B0
:100CB000220296420AD00022C1F23102964205D0A9
:100CC0000022C1F23202964220D100BF8A684AB1A6
:100CD000012A14BFC0F81480C0F810804FF0080932
:100CE00014E000BF4FF0040910E000BFCA6802F131
:100CF00008090BE04FF0000908E000BFCA6802F1E4
:100D0000040903E0CA6802F10C0900BF2246064646
:100D1000BAF1080F24BF203A043637680F259540F2
:100D200027EA050509FA02F22A433260CA79D20697
:100D30007FF582AF41F21803C4F202031A6842F051
:100D400001021A601A6802F001020192019A40F24F
:100D50000042C4F20102A2F57E762AF0030256F8A0
:100D600002B040F60002C4F20102904210D040F6F8
:100D70000042C4F2010290423FF422AF41F200026D
:100D8000C4F20102009F904208BF022719E700BF8A
:100D9000002716E702B0BDE8F08F00008068084029
:100DA00018BF012070470000002A08BF0904016134
:100DB0007047000040F20810C2F20000006870475F
:100DC00070B5B8B3044690F83D0028B9002084F807
:100DD0003C00204600F09EF9242084F83D00206865
:100DE000016821F001010160016841F400410160E6
:100DF000016821F40041016000F04EFB48F280419F
:100E0000C0F21E0140F60013D4F804E088424FF00F
:100E10000001C0F23D0348F2A16C4FF0000238BF60
:100E200001219842C0F2010C38BF0122E64538BFCB
:100E30000A460AB1012070BD4DF68361C4F21B3130
:100E4000A0FB01122168950C4B684FF4967623F0B5
:100E50003F0343EA9243754344F6D3564B60C1F2D5
:100E600062060B6AA5FB0656B50923F03F03E6456B
:100E700038BF950C6A1C1A430A62CA6948F2A06618
:100E80004CF6FF73C0F20106B64522EA03020BD806
:100E900001384FEA4E03B0FBF3F001306FF31F301F
:100EA000042898BF04201EE0A368013863B1192309
:100EB0000EFB03F3B0FBF3F001306FF31F3078B19A
:100EC00000F5804008E000BF0EEB4E03B0FBF3F0EE
:100ED00001306FF31F3028B100F5004003E000BF80
:100EE000012000E001201043C8610868D4E907230D
:100EF00020F0C000104318430860886848F2FF32B1
:100F000004F10C0690434CCE18431043A569886049
:100F1000C86820F0FF0030432843C860086840F0EC
:100F20000100086000202021206484F83D10206327
:100F300084F83E0070BD00002DE9F04383B099466F
:100F400016460F460446FFF735FF94F83D1020295A
:100F50001CD1054620688169890713D5FFF72AFF50
:100F6000401B1928F6D900202021206384F83D1069
:100F700084F83E00216C41F02001216484F83C009B
:100F800004E000BF94F83C10012903D1022003B013
:100F9000BDE8F083012284F83C200368DDE90B18EA
:100FA0000A9ADB0703D1036843F001030360036877
:100FB00023F400630360212084F83D00402084F87E
:100FC0003E000020206462626185608D3946208584
:100FD0000020CFF6FF70E062204632464B46CDF847
:100FE0000080019500F044FF20B1012003B0BDE86E
:100FF000F08300BF208D002850D0206808F1010642
:10100000014651F8142F12062CD49EB1B8F1000FEE
:101010005AD000BF086840055ED4FFF7CBFE401BE6
:10102000404556D82068014651F8142F1206F1D5D4
:1010300018E000BF0A6852054ED40A68120611D49F
:101040000A68520548D40A6812060BD40A68520589
:1010500042D40A68120605D40A6852053CD40A68CC
:101060001206E7D5626A114611F8013B0361238D30
:101070006162591E2185678D013F678547697F073A
:101080000AD50F0408D051780161911C6162991E44
:101090002185628D013A62850904B1D1204641461D
:1010A0002A4601F01FF838BB2068016841F400713E
:1010B0000160202084F83D00002084F83E0084F880
:1010C0003C0003B0BDE8F0830868400504D4FFF796
:1010D00071FE202004E000BF6FF4806008600420EF
:1010E00000212022216384F83D2084F83E10226CE8
:1010F0001043206484F83C10206C04287FF475AF02
:101100002068016841F400710160012003B0BDE86E
:10111000F083000010B586B0006845F20042C4F2CA
:10112000000200219042049102D006B010BD00BF21
:1011300041F21804C4F20204206802A940F0080039
:101140002060206800F00800019001984FF4407082
:101150000290122003900320059040F60040C4F254
:101160000100FFF70DFD0420C4F20100016841F009
:10117000E06141F002010160606840F400106060CD
:10118000606800F400100190019806B010BD0000E6
:1011900040F2000040F20811C2F20000C2F2000169
:1011A00000780A68104408607047000080B542F279
:1011B0000000C4F20200016841F010010160032048
:1011C00000F07AF80F2000F005F800F027F8002072
:1011D00080BD000070B540F20006C2F2000640F289
:1011E00024013278C2F200014FF47A730968B3FB2C
:1011F000F2F20446B1FBF2F1084600F04FFB0F2C6F
:101200004FF0010508D838B94FF0FF3021460022D1
:10121000002500F025F87460284670BD82B041F2C8
:101220001800C4F202000168022241F001010160CD
:10123000016801F0010101910199416841F080517B
:101240004160406800F08050009000980420C4F293
:101250000100016862F31A61016002B0704700008A
:1012600010B54EF60C5CCEF2000CDCF80030C3F387
:10127000022E8EF00704042C28BF0424BEF10303C1
:101280004FF0FF3E0EFA04F438BF0023A14399400B
:101290000EFA03F39A43114300F00F0200F160438A
:1012A0000901043A03F564436244002848BF02F18F
:1012B0000C03197010BD00004EF60C51CEF2000167
:1012C0000A684FF6FF031A4060F30A2242F080607A
:1012D00040F0FD70086070472DE9F04381B00028B0
:1012E00000F0858042F20008C4F202080446D8F8F3
:1012F00000000D4600F0070088420CD2D8F800002C
:1013000020F007002843C8F80000D8F8000000F0DB
:101310000700A8426BD1206841F204098107C4F29A
:10132000020917D5410705D5D9F8001041F4E0614D
:10133000C9F80010010705D5D9F8001041F4605133
:10134000C9F80010D9F80010A26821F0F00111438B
:10135000C9F80010C00741D1D8F8000000F007001C
:10136000A8420CD9D8F8000020F007002843C8F89C
:101370000000D8F8000000F00700A84237D120682C
:10138000410707D5D9F80010E26821F4E061114364
:10139000C9F80010000708D5D9F80000216920F429
:1013A000605040EAC100C9F80000D9F8002002F0FE
:1013B0000C00082841F20020C0F27A0050D145F21A
:1013C000E253C2F38341C0F60003595CD2033BD41D
:1013D00040F60010C0F23D00484341E0606802283A
:1013E0000AD001282AD159F8041C890308D4012005
:1013F00001B0BDE8F08300BF59F8041C8901F6D59F
:10140000D9F8001021F003010843C9F80000FFF7E4
:10141000D1FC064641F28837D9F80000616800F037
:101420000C00B0EB810F97D0FFF7C4FC801BB842D3
:10143000F2D9032001B0BDE8F08300BF59F8041CC5
:101440008907D4D5DCE700BFD9F8002042F6DE7367
:10145000C2F34042C0F600039A5C4843B0FBF2F08E
:10146000D9F8001042F6E072C1F30311C0F6000291
:10147000515C40F2240220FA01F140F20400C2F271
:1014800000000068C2F200021160FFF7A3FE002016
:1014900001B0BDE8F083000040F2240041F20401F5
:1014A000C2F20000C4F202010068096842F6F0725C
:1014B000C1F30221C0F60002515CC8407047000031
:1014C00040F2240041F20401C2F20000C4F2020121
:1014D0000068096842F6F072C1F3C221C0F600024A
:1014E000515CC840704700002DE9F04182B00028EF
:1014F00068D00446007841F20006C007C4F2020634
:1015000025D0706800F00C0004281BD0706800F033
:101510000C00082802D17068C00313D4606800284A
:1015200000F06881B0F5A02F00F07C81B0F5803F1D
:1015300000F07C81306820F480303060306820F426
:10154000802076E13068800301D56068D0B32078D0
:10155000800718D5706810F00C0F07D0706800F085
:101560000C0008286ED17068C0036BD43068800707
:1015700002D52069012825D13068616920F0F80082
:1015800040EAC1003060207800071FD4207840076F
:1015900032D4E56995B1706800F00C00082840F07D
:1015A0008F80012D0ED07068216A00F480328A424B
:1015B00008D1616A00F47010884203D1002002B0A3
:1015C000BDE8F081012002B0BDE8F081A0690028EB
:1015D00062D00020C4F242200121C0F88014FFF73D
:1015E000E9FB0546706A800700F18C80FFF7E2FB9B
:1015F000401B0228F6D92AE1F06910F0805808D182
:10160000F06940F08050F061F06900F08050009087
:10161000009847F20007C4F200073868C00529D4D3
:10162000386840F480703860FFF7C4FB054600BF9F
:101630003868C0051ED4FFF7BDFB401B6428F7D9EE
:1016400005E100BF2069002840F20000C4F24220FA
:1016500000F0828001210160FFF7ACFB054600BF6E
:10166000306880073FF588AFFFF7A4FB401B0228D6
:10167000F6D9ECE0E068002800F08080052800F052
:101680009780012800F09880306A20F001003062D5
:10169000306A20F0040092E00020C4F242200021D1
:1016A000C0F88014FFF786FB054600BF706A80070C
:1016B0007FF56CAFFFF77EFB401B0228F6D9C6E032
:1016C0000027C4F2422700203866FFF773FB022D83
:1016D00005460BD13068800140F1BE80FFF76AFB00
:1016E000401B02284FF00300F4D968E730688001FE
:1016F0007FF564AFFFF75EFB401B02284FF003004D
:10170000F4D95CE740F22400C2F20000006844F61D
:10171000D351C1F26201A0FB0101480A019000BF50
:1017200000BF0198411E002801913FF42FAF00BF78
:101730000198411E002801913FF428AF00BF019895
:10174000411E002801913FF421AF00BF0198411EC6
:1017500000280191E4D119E700210160FFF72AFB7D
:10176000054600BF306880077FF50DAFFFF722FB0D
:10177000401B02284FF00300F4D920E7306A20F024
:1017800001003062306A20F004003062FFF712FB83
:10179000054641F2883700BF306A800720D5FFF741
:1017A00009FB401BB8424FF00300F5D907E700BF23
:1017B000306A40F004003062306A40F0010030626C
:1017C000FFF7F8FA054641F2883700BF306A800714
:1017D00006D4FFF7EFFA401BB842F7D937E000BF55
:1017E000B8F1000F7FF4D5AEF06920F08050F061C1
:1017F000CFE600BF306820F480303060306820F4DD
:1018000080203060FFF7D6FA054600BF30688003BD
:101810007FF59DAEFFF7CEFA401B64284FF0030022
:10182000F4D9CCE6306840F480203060306840F471
:1018300080303060FFF7BEFA054600BF3068800395
:101840003FF585AEFFF7B6FA401B6428F6D90320B2
:1018500002B0BDE8F08100BF206AB0F5803F05D13D
:101860007168A26821F40031114371607168626A85
:1018700021F4741111430843706001203866FFF7AA
:1018800099FA0446306880013FF598AEFFF792FA66
:10189000001B02284FF00300F4D990E6411E0020FF
:1018A000B0EB116F1CBF012070474EF21002CEF258
:1018B000000251604EF62351CEF20001F0230B706E
:1018C000072190601160704710B590F83C20012A04
:1018D0004FF0020233D080F83D200268D2F804E0D5
:1018E000D2F808C00C682EF07003234340F2FF7456
:1018F000C4F20004A24253600ADCB2F1804F13D05C
:1019000040F20043C4F200039A420DD011E000BF40
:1019100042F60043C4F201039A4205D040F60003A8
:10192000C4F200039A4204D149682CF080031943A1
:1019300091600121002280F83D1080F83C20104683
:1019400010BD0000002804BF0120704710B50446F8
:1019500090F83D0028B9002084F83C00204600F0B3
:1019600067F8022084F83D00206840F2FF730268A7
:10197000C4F2000342F6004C9842C4F2010C15DC9C
:10198000B0F1804F1AD040F20041C4F20001884209
:1019900014D0984218DCB0F1804F1DD040F20041C5
:1019A000C4F20001884217D01AE000BF604505D09C
:1019B00040F60001C4F200018842EAD1A16822F099
:1019C00070020A439842E6DD604505D040F600010A
:1019D000C4F20001884203D1216922F440720A4313
:1019E000A36922F08001D4F804E0E268194360455D
:1019F0000160C262C0F828E002D16169CCF8301001
:101A000001214161002084F8461084F83E1084F8DA
:101A10003F1084F8401084F8411084F8421084F894
:101A2000431084F8441084F8451084F83D1010BD2C
:101A300081B0006842F60041C4F20101884201D041
:101A400001B0704741F21800C4F20200016841F48D
:101A500000610160006800F400600090009801B02F
:101A60007047000090F83D1001291CBF012070470D
:101A7000022180F83D10006840F2FF71C4F20001BD
:101A8000884209DCB0F1804F12D040F20041C4F22C
:101A9000000188420CD012E042F60041C4F201017C
:101AA000884205D040F60001C4F20001884206D108
:101AB000816801F00701062904BF00207047016812
:101AC00041F00101016000207047000001460068FC
:101AD00041F21113026A1A4204D00122002081F857
:101AE0003D207047026A40F244431A42F5D1026831
:101AF00022F0010202600122002081F83D2070479F
:101B000080B590F83C20012A4FF0020200F0BF801F
:101B100080F83D20D0F800C04FF67772DCF808302E
:101B200023EA0202CCF808200B683F2B1CDD5F2B58
:101B300020DD602B50D0B3F5005F6DD0702B40F0EE
:101B4000A080D1E901E3C968DCF8082043EA0E036C
:101B500022F47F4243EA01211143CCF80810DCF85B
:101B6000081041F077018AE01F2B29DC63B3102BAA
:101B70002AD086E0402B63D0502B40F08280D1F8F1
:101B800004E0C968DCF82030DCF8202022F00102F3
:101B9000CCF82020DCF8182022F0F00242EA0111F3
:101BA00023F00A0242EA0E02CCF81810CCF82020EA
:101BB000DCF8081041F0570121F020015FE000BF80
:101BC000202B01D0302B5CD1DCF8081021F0700103
:101BD000194341F0070152E0D1F804E0C968DCF88C
:101BE000203023F01003CCF82030DCF81830DCF87B
:101BF000202023F4704322F0A00243EA013142EA9C
:101C00000E12CCF81810CCF82020DCF8081041F0A7
:101C1000670121F0100132E0D1E901E3C968DCF885
:101C2000082043EA0E0322F47F4243EA01211143D4
:101C3000CCF80810DCF8081041F480411FE000BF28
:101C4000D1F804E0C968DCF82030DCF8202022F06C
:101C50000102CCF82020DCF8182022F0F00242EA41
:101C6000011123F00A0242EA0E02CCF81810CCF857
:101C70002020DCF8081041F0470121F03001CCF8B9
:101C800008100121002280F83D1080F83C20104609
:101C900080BD0000002804BF0120704710B5044635
:101CA00090F83D0028B9002084F83C00204600F060
:101CB00061F8242084F83D002068D4E90212C3684A
:101CC00023F40053C360036923F440531A430261B1
:101CD000D4E904231143C268194341F20C639A43C7
:101CE0001143C1604169A26921F44071114343F677
:101CF0000002C4F201029042416103D0FFF7CCFB25
:101D000002E000BFFFF7DCFB626819214843910045
:101D1000B0FBF1F048F21F51C5F2EB11A0FB01231B
:101D20005A094FF69C73C0F6FF7302FB030032237F
:101D300003EB0010A0FB0101F02303EA511320681C
:101D400003EB0212C1F3431111448160016921F4D4
:101D500090410161416921F02A014161C16841F46A
:101D60000051C16000202021206484F83D1084F8D7
:101D70003E1010BD70B586B040F60004C4F20104F8
:101D8000006804F5405100268842049602D006B04F
:101D900070BD00BF41F21800C4F20200016802AD3C
:101DA00041F480410160016801F480410191019991
:101DB000016841F0040101600068294600F0040058
:101DC000019001984FF400700290022003900320CC
:101DD00005902046FEF7D4FE4FF48060CDE9020660
:101DE000204629460496FEF7CBFE06B070BD0000E3
:101DF000B0B540F60004C4F2010420464FF400617F
:101E00000122FEF7D1FF1420FEF78CFE20464FF48E
:101E100000610022FEF7C8FF20464FF48051FEF714
:101E2000BDFF0028F8D040F27C05C2F2000528680A
:101E3000002141622846FFF715FE00BF20464FF4FF
:101E40008051FEF7ABFF0028F8D12846FFF73EFE91
:101E50002868406AFEF7FFFA0023C4F24D0300220F
:101E6000FEF779FAFEF74FFBB0BD0000FEE7000079
:101E70002DE9F04381B00446006890460268099D50
:101E800042F4807202604269089E9946D2070F466A
:101E90001DD1711C11D0002E00F0D280FEF78AFFF8
:101EA000401BB04200F2CE8020684169C907F5D0DE
:101EB0000DE000BF4169C90709D14169C90706D1D1
:101EC0004169C90704BF41695FEAC171F2D007F0F7
:101ED000FE0101614169890738D44169721C01F42E
:101EE000806111D049BB002E00F0E880FEF762FF50
:101EF000401BB04200F2E48020684169890725D484
:101F000041694905F2D518E0B9B9416989071DD47D
:101F10004169490511D44169890717D441694905C7
:101F20000BD44169890711D44169490505D4416938
:101F300089070BD441694905E7D5016841F400716F
:101F400001606FF4806141610420BAE000210091DA
:101F5000014651F8142F00924A680092009A0A68CC
:101F600012061ED4002E00F08580721C4DD10A6826
:101F7000520500F187800A68120612D40A685205D9
:101F800000F180800A6812060BD40A68520579D4E1
:101F90000A68120605D40A68520573D40A68120644
:101FA000E5D5B9F1010F43D04FEA1821016101468F
:101FB00051F8142F12063BD4002E5BD0721C29D18D
:101FC0000A6852055ED40A68120631D40A685205BE
:101FD00058D40A6812062BD40A68520552D40A68EB
:101FE000120625D40A6852054CD40A681206E7D5B1
:101FF0001EE000BFFEF7DEFE401BB0423FD8206867
:10200000014651F8142F1206CBD408684005F1D5CB
:1020100038E000BF0868400534D4FEF7CBFE401B13
:10202000B0422CD82068014651F8142F1206F1D581
:102030005FFA88F10161002001B0BDE8F08300BFC4
:10204000FEF7B8FE00202021206384F83D1084F8BC
:102050003E00216C41F020012164216884F83C009D
:102060000868C00544BF4FF400702064032001B02D
:10207000BDE8F0830868400504D4FEF79BFE2020ED
:1020800004E000BF6FF4806008600420002120227B
:10209000216384F83D2084F83E10226C10432064B4
:1020A00084F83C10206C042817D12068016841F4A2
:1020B00000710160012001B0BDE8F083FEF77AFEF7
:1020C000202000212022216384F83D2084F83E1046
:1020D000226C1043206484F83C10012001B0BDE85C
:1020E000F083000070B50368044653F8140F4007EE
:1020F00037D40E46F1B1701C24D100BF18684005DA
:1021000032D4186840072CD4186840052CD41868BD
:10211000400726D41868400526D41868400720D404
:102120001868400520D4186840074FF0000048BFE9
:1021300070BDE3E71868400516D4FEF73BFE20208B
:1021400016E000BF154600BF186840050CD4FEF726
:1021500031FE401BB042F2D8236853F8140F4007F9
:10216000F2D5002070BD00BF6FF4806018600420BD
:1021700000212022216384F83D2084F83E10226C47
:1021800010432064012084F83C1070BD2DE9F04F0D
:1021900085B041F21800C4F20200016840F6000563
:1021A00041F0100101600168C4F2010501F0100165
:1021B000019101990168002241F02001016001684C
:1021C00040F6FC0601F020010191019901684FF0F1
:1021D000000841F004010160016801F0040101916F
:1021E0000199016841F008010160006840F6FC01B6
:1021F00000F00800019001982846FEF7D5FD05F58E
:1022000080642046032100224FF0030AFEF7CCFD34
:1022100028464FF4004101224FF400490127FEF700
:10222000C3FDCDE9016701AE4FF0020B28463146F0
:10223000CDE903BAFEF7A4FC20463146CDE901A75B
:10224000CDE903BAFEF79CFC4FF48850CDE90108B4
:1022500028463146CDF80C80FEF792FC28463146E0
:10226000CDE90197CDE9037AFEF78AFCF820CDE9A4
:10227000010820463146CDF80C80FEF781FC05B000
:10228000BDE8F08F80B540F2280045F20041C2F26F
:102290000000C4F2000148F2A06200234FF4804C19
:1022A000C0F2010280E80E00C0E9033CC0E905333A
:1022B000C0E90733FEF784FD002808BF80BDBDE8F4
:1022C0008040FEF715BC000080B586B040F27C006F
:1022D00042F600420021C2F20000C4F2010247238C
:1022E0004FF6FF7C0591CDE90311CDE90011C0E95E
:1022F0000023C0E9021CC0E904118161FFF722FB41
:10230000002818BFFEF7F4FB4FF48050029040F213
:102310007C00C2F2000002A9FFF7F2FB002818BF00
:10232000FEF7E6FB40F27C00C2F200006946FFF7D0
:10233000CBFA002818BFFEF7DBFB06B080BD00001B
:1023400080B540F2C40043F60001C2F20000C4F2BE
:10235000010100234FF00C0C4FF4165280E80E00E0
:10236000C0E90333C0E905C3C361FFF793FC00284C
:1023700008BF80BDBDE88040FEF7BABBFEE70000A5
:10238000FEE700002DE9F04F85B040F2280400255B
:102390004FF480760127C2F200040DF1120B0DF10B
:1023A00013084FF0000900BF09F1B0008DF81000CC
:1023B00004A8CDE9000720467821002201230296D7
:1023C000FEF7BAFD0DF11100CDE900072046782196
:1023D000002201238DF811500296FEF7ADFD10206A
:1023E0008DF812002046782100220123CDE900B7A4
:1023F0000296FEF7A1FD4FF0000A00BF20467821AB
:10240000402201238DF81350CDE900870296FEF794
:1024100093FD0AF101004FFA80FABAF1FF3FEDDCBB
:10242000B9F1070F09F10109BED305B0BDE8F08F7E
:1024300080B5C820FEF762FBBDE8804000F01ABB03
:102440002DE9F04F89B040B20D46A2F120010028DD
:1024500020EAE0724FF0100748BF0235A5F15000A6
:1024600047EA121402F00F07102BCEB240F03A8167
:1024700040F228088DF818004FF0010B06A8C2F2B0
:1024800000084FF48079CDE9000B40467821002206
:102490000123CDF80890FEF74FFD0DF11900CDE9AD
:1024A000000B40467821002201238DF81940CDF819
:1024B0000890FEF741FD0DF11A00CDE9000B4046F2
:1024C0007821002201238DF81A70CDF808904FF47E
:1024D0008079FEF731FD43F220213001C0F6000182
:1024E000085C01EB06168DF81B0005970DF11B0724
:1024F0004046782140220123CDE9007BCDF80890A9
:10250000FEF71AFD7078317996F802A0049496F8D7
:10251000039003918DF81B0040467821402201234F
:102520004FF48074CDE9007B0294FEF705FD404630
:102530007821402201234FF480748DF81BA0CDE94F
:10254000007B0294FEF7F8FC4046782140220123EC
:102550008DF81B90CDE9007B0294FEF7EDFC03980B
:1025600078218DF81B00404640220123CDE9007BF5
:102570000294FEF7E1FC707978218DF81B0040464B
:1025800040220123CDE9007B0294FEF7D5FCB0790F
:1025900078218DF81B00404640220123CDE9007BC5
:1025A0000294FEF7C9FCF07978218DF81B004046B3
:1025B00040220123CDE9007B0294FEF7BDFCA5F18A
:1025C0004F008DF81C0007A8CDE9000B404678218C
:1025D000002201230294FEF7AFFC049878218DF8C5
:1025E0001D000DF11D00CDE9000B40460022012326
:1025F0000294FEF7A1FC059878218DF81E000DF1DC
:102600001E00CDE9000B4046002201230294FEF794
:1026100093FC307A0DF11F058DF81F00404678219C
:1026200040220123CDE9005B0294FEF785FC707A1D
:1026300078218DF81F00404640220123CDE9005B40
:102640000294FEF779FCB07A78218DF81F0040469D
:1026500040220123CDE9005B0294FEF76DFCF07A85
:1026600078218DF81F00404640220123CDE9005B10
:102670000294FEF761FC307B78218DF81F00404604
:1026800040220123CDE9005B0294FEF755FC707BEC
:1026900078218DF81F00404640220123CDE9005BE0
:1026A00002944FF48074FEF747FCB07B78218DF8DC
:1026B0001F00404640220123CDE9005B02944FF405
:1026C0008074FEF739FCF07BCDE9005B8DF81F00CC
:1026D00040467821402201230294FEF72DFC09B0E8
:1026E000BDE8F08F40F2280B8DF820004FF0010A72
:1026F00008A8C2F2000B4FF48078CDE9000A5846D2
:10270000782100220123CDF80880FEF715FC0DF199
:102710002100CDE9000A58467821002201238DF8D6
:102720002140CDF80880FEF707FC0DF12200CDE92D
:10273000000A58467821002201238DF82270CDF836
:102740000880FEF7F9FB42F6F87106EB4600C0F68A
:10275000000111F8102001EB40058DF823200DF148
:1027600023065846782140220123CDE9006ACDF89E
:102770000880FEF7E1FB6878AF78EC7895F8049074
:102780008DF823005846782140220123CDE9006AC4
:10279000CDF80880FEF7D0FB58467821402201236F
:1027A0008DF82370CDE9006ACDF80880FEF7C4FBF0
:1027B00058467821402201238DF82340CDE9006A54
:1027C000CDF80880FEF7B8FB584678214022012357
:1027D0008DF82390CDE9006ACDF80880FEF7ACFBB8
:1027E000687978218DF82300584640220123CDE9ED
:1027F000006ACDF80880FEF79FFB09B0BDE8F08FB6
:102800002DE9F04F87B00646A1F1500040F22805AF
:102810008DF81400012705A8C2F2000514460491A2
:102820004FF4807ACDE90007284678210022012361
:10283000CDF808A0FEF780FB300900F110080DF17B
:102840001500CDE9000728467821002201238DF8E4
:102850001580CDF808A0FEF76FFB0DF1160006F00D
:102860000F0BCDE9000728467821002201238DF8BF
:1028700016B0CDF808A0FEF75FFB43F60001C4EBED
:102880000420C0F6000101EB40064FF0FF340DF1CB
:10289000170900BF3019407878218DF817002846B5
:1028A00040220123CDE90097CDF808A0FEF744FBB4
:1028B00001341F2CEED1049840F228044F388DF8D3
:1028C00018004FF0010A06A8C2F200044FF4807904
:1028D000CDE9000A2046782100220123CDF8089096
:1028E000FEF72AFB0DF11900CDE9000A20467821F8
:1028F000002201238DF81980CDF80890FEF71CFB0B
:102900000DF11A00CDE9000A2046782100220123AA
:102910008DF81AB0CDF80890FEF70EFBFE250DF1EC
:102920001B0700BF7019407878218DF81B002046E6
:1029300040220123CDE9007ACDF80890FEF7FCFA99
:102940000135B5F58F7FEDD107B0BDE8F08F000000
:102950002DE9F04F85B0002B049103907CD00E98A8
:102960001C464508981E009058421746591E4FF0C5
:1029700000085FFA80FB42F2107900264FF0000A4F
:102980000291019212E000BF0126039940F030024B
:1029900005FB08110E9BC8B20499D2B2FFF750FD97
:1029A00008F10108A0450AF1010A55D06FEA0A00B2
:1029B000C0B2584502D101202AE000BF00996FEA59
:1029C0000800A1EB0801C9B2032900EB040101D200
:1029D000012009E001F0FC02002301200433DFB2F2
:1029E000974200FB09F0F9D1019F11F003010FD0CC
:1029F000012903D100EB8000400009E04FF47A7216
:102A0000424302294FF0640108BF00FB01F2104667
:102A1000B7FBF0F04CF6CD41CCF6CC41A0FB011257
:102A2000D10801EB8101002EA0EB4100ADD102994C
:102A30004145AADD0028A7D10398049905FB0800A9
:102A40000E9BC0B22022FFF7FBFC002608F1010814
:102A5000A0450AF1010AA9D105B0BDE8F08F000038
:102A60007047000070470000FEF792BB70470000FF
:102A7000FEE70000F0B583B040F2280440F20807FA
:102A8000C2F200044FF480750126C2F2000720460E
:102A9000782100220123CDE900760295FEF74CFA59
:102AA000781CCDE9000620467821002201230295FA
:102AB000FEF742FAB81CCDE9000620467821002234
:102AC00001230295FEF738FAF81CCDE900062046EE
:102AD0007821002201230295FEF72EFA381DCDE958
:102AE000000620467821002201230295FEF724FAF1
:102AF000781DCDE9000620467821002201230295A9
:102B0000FEF71AFAB81DCDE900062046782100220A
:102B100001230295FEF710FAF81DCDE900062046C4
:102B20007821002201230295FEF706FA07F108003A
:102B3000CDE9000620467821002201230295FEF708
:102B4000FBF907F10900CDE90006204678210022B3
:102B500001230295FEF7F0F907F10A00CDE900061E
:102B600020467821002201230295FEF7E5F907F1BE
:102B70000B00CDE9000620467821002201230295B2
:102B8000FEF7DAF907F10C00CDE9000620467821BE
:102B9000002201230295FEF7CFF907F10D00CDE9E0
:102BA000000620467821002201230295FEF7C4F991
:102BB00007F10E00CDE9000620467821002201230E
:102BC0000295FEF7B9F907F10F00CDE9000620469E
:102BD0007821002201230295FEF7AEF907F11000DB
:102BE000CDE9000620467821002201230295FEF758
:102BF000A3F907F11100CDE9000620467821002253
:102C000001230295FEF798F907F11200CDE90006BD
:102C100020467821002201230295FEF78DF907F165
:102C20001300CDE9000620467821002201230295F9
:102C3000FEF782F907F11400CDE90006204678215D
:102C4000002201230295FEF777F907F11500CDE97F
:102C5000000620467821002201230295FEF76CF938
:102C600007F11600CDE90006204678210022012355
:102C70000295FEF761F907F11700CDE9000620463D
:102C80007821002201230295FEF756F907F118007A
:102C9000CDE9000620467821002201230295FEF7A7
:102CA0004BF907F11900CDE90006204678210022F2
:102CB00001230295FEF740F907F11A00CDE900065D
:102CC00020467821002201230295FEF735F903B052
:102CD000F0BD000090B0FEF769FA00240120CDE9B4
:102CE0000B44CDE9094406900A904FF4E0104FF4EC
:102CF000803102250F9006A8CDE90714CDE90D51CA
:102D0000FEF7F2FB20B1EFF3108072B6FEE700BFD2
:102D10000F20CDE901054FF48060CDE9040401A83E
:102D200002210394FEF7D8FA20B1EFF3108072B6B7
:102D3000FEE700BF40F60009C4F20109FFF726FADA
:102D4000FFF7FEFAFFF79EFAFFF7BEFAFFF770FBF8
:102D5000FFF718FB202000210022FFF751FD302053
:102D600000210122FFF74CFD402000210222FFF745
:102D700047FD502000210322FFF742FD18200221C9
:102D80000422FFF73DFD282002210522FFF738FD30
:102D9000382002210622FFF733FD482002210722B6
:102DA000FFF72EFD582002210822FFF729FD002001
:102DB00004210922FFF724FD102004210A224FF0EC
:102DC000100AFFF71DFD202004210B22FFF718FD3C
:102DD000302004210C22FFF713FD402004213A2269
:102DE0001023FFF72DFB002006210922FFF708FD25
:102DF000102006210A22FFF703FD202006210D22C4
:102E0000FFF7FEFC302006210E22FFF7F9FC4020E0
:102E100006213A221023FFF713FB40F20008C4F208
:102E200024082CE00127484604213A46FDF7BCFF60
:102E3000484608210022FDF7B7FF484610213A46D0
:102E4000FDF7B2FF484620210022FDF7ADFF4846BE
:102E500040213A46FDF7A8FF484680210022FDF7B1
:102E6000A3FF304601213A46FDF79EFF304602217E
:102E70000022FDF799FF4FF47A70FDF73FFE4846B8
:102E80004FF48071FDF78AFF012835D1FDF77EFCF4
:102E90000646FDF725FB074630460D46FDF7E8FAE6
:102EA0000646FDF7C7FA02460B4638462946FDF7A7
:102EB000DAF900224346FDF7DCF9FDF7F2FA0546A0
:102EC000F2B2502006210223CDF800A0FFF740FD0A
:102ED000602006212E221023FFF7B2FA6820062177
:102EE0002A460123CDF800A0FFF732FD702006210D
:102EF00043221023FFF7A4FAFEF77AFF0546FDF7F9
:102F0000EFFA074628460C46FDF7B2FA0646FDF7EB
:102F100091FA02460B4638462146FDF7A4F90022F5
:102F20004346FDF7A6F9FDF7BCFA0446F2B250207D
:102F300004210223CDF800A0FFF70AFD6020042140
:102F40002E221023FFF77CFA682004212246012359
:102F5000CDF800A00127FFF7FBFC702004216322BD
:102F60001023FFF76DFA782004216D221023FFF75C
:102F700067FA09F5806630462021FDF70FFF01282A
:102F80003FF451AF30460821FDF708FF01283FF418
:102F900049AF30461021FDF701FF01283FF442AF51
:102FA00030464021FDF7FAFE01283FF43BAF3046A2
:102FB0008021FDF7F3FE0138B0FA80F0470932E7CF
:102FC00002E008C8121F08C1002AFAD170477047F2
:102FD000002001E001C1121F002AFBD1704701024D
:102FE00000000000000000000102030406070809B9
:102FF00000000000010203040000000000000000C7
:10300000002F000000000700070000147F147F1449
:1030100000242A7F2A1200626408132300364955CF
:10302000225000000503000000001C2241000000A7
:1030300041221C000014083E08140008083E08083D
:10304000000000A060000008080808080000606098
:103050000000002010080402003E5149453E0000D7
:10306000427F4000004261514946002141454B31B9
:10307000001814127F10002745454539003C4A4985
:1030800049300001710905030036494949360006F7
:103090004949291E0000363600000000563600005F
:1030A00000081422410000141414141400004122DA
:1030B000140800020151090600324959513E007CB2
:1030C0001211127C007F49494936003E414141229C
:1030D000007F4141221C007F49494941007F090985
:1030E0000901003E4149497A007F0808087F000035
:1030F000417F4100002040413F01007F08142241F0
:10310000007F40404040007F020C027F007F0408A7
:10311000107F003E4141413E007F09090906003E03
:103120004151215E007F091929460046494949312C
:103130000001017F0101003F4040403F001F20404F
:10314000201F003F4038403F00631408146300070D
:103150000870080700615149454300007F41410064
:1031600000552A552A55000041417F000004020104
:1031700002040040404040400000010204000020E2
:1031800054545478007F4844443800384444442020
:1031900000384444487F00385454541800087E09CD
:1031A00001020018A4A4A47C007F08040478000095
:1031B000447D4000004080847D00007F1028440052
:1031C0000000417F4000007C04180478007C080463
:1031D000047800384444443800FC2424241800189F
:1031E000242418FC007C080404080048545454208B
:1031F00000043F444020003C4040207C001C204014
:10320000201C003C4030403C004428102844001C56
:10321000A0A0A07C004464544C441414141414144E
:10322000000000000000000000000000000000009E
:10323000000000F800000000000000333000000033
:1032400000100C06100C060000000000000000003A
:1032500040C07840C0784000043F04043F040400AC
:10326000007088FC08300000001820FF211E0000BC
:10327000F008F000E018000000211C031E211E00D1
:1032800000F00888700000001E2123241927211057
:1032900010160E00000000000000000000000000FA
:1032A000000000E0180402000000000718204000A1
:1032B00000020418E0000000004020180700000091
:1032C000404080F0804040000202010F01020200F5
:1032D000000000F0000000000101011F01010100D9
:1032E000000000000000000080B07000000000003E
:1032F00000000000000000000001010101010101C7
:10330000000000000000000000303000000000005D
:103310000000000080601804006018060100000032
:1033200000E010080810E000000F102020100F002F
:10333000001010F8000000000020203F20200000B6
:10334000007008080888700000302824222130000E
:1033500000300888884830000018202020110E0016
:103360000000C02010F8000000070424243F2400BF
:1033700000F80888880808000019212020110E0094
:1033800000E0108888180000000F112020110E00A6
:1033900000380808C83808000000003F000000009E
:1033A0000070880808887000001C222121221C005F
:1033B00000E010080810E0000000312222110F0088
:1033C000000000C0C000000000000030300000001D
:1033D000000000800000000000008060000000008D
:1033E00000008040201008000001020408102000A6
:1033F00040404040404040000404040404040400F1
:103400000008102040800000002010080402010085
:10341000007048080808F000000000303601000085
:10342000C030C828E810E0000718272423140B0038
:103430000000C038E0000000203C230202273820B2
:1034400008F8888888700000203F202020110E0096
:10345000C03008080808380007182020201008008D
:1034600008F808080810E000203F202020100F0076
:1034700008F88888E8081000203F20202320180042
:1034800008F88888E8081000203F200003000000AA
:10349000C03008080838000007182020221E02004B
:1034A00008F808000008F808203F210101213F200A
:1034B000000808F8080800000020203F2020000035
:1034C00000000808F8080800C08080807F00000025
:1034D00008F888C028180800203F2001263820005E
:1034E00008F8080000000000203F202020203000C5
:1034F00008F8F800F8F80800203F003F003F2000DF
:1035000008F830C00008F808203F200007183F00E6
:10351000E01008080810E0000F10202020100F0015
:1035200008F808080808F000203F21010101000008
:10353000E01008080810E0000F18242438504F004D
:1035400008F8888888887000203F2000030C30200D
:1035500000708808080838000038202121221C004B
:10356000180808F8080818000000203F2000000094
:1035700008F808000008F808001F202020201F007D
:103580000878880000C83808000007380E010000DD
:10359000F80800F80008F800033C0700073C0300A7
:1035A000081868808068180820302C03032C30200D
:1035B0000838C800C83808000000203F200000007C
:1035C00010080808C83808002038262120201800D4
:1035D000000000FE020202000000007F40404000A8
:1035E000000C30C000000000000000010638C000E0
:1035F00000020202FE000000004040407F00000088
:1036000000000402020204000000000000000000AC
:1036100000000000000000008080808080808080AA
:103620000002020400000000000000000000000092
:1036300000008080808000000019242222223F2088
:1036400008F8008080000000003F112020110E00CB
:103650000000008080800000000E1120202011005A
:10366000000000808088F800000E112020103F200C
:103670000000808080800000001F22222222130090
:10368000008080F0888888180020203F20200000DB
:103690000000808080808000006B94949493600090
:1036A00008F8008080800000203F210000203F209B
:1036B00000809898000000000020203F202000009B
:1036C000000000809898000000C08080807F00008B
:1036D00008F8000080808000203F24022D30200068
:1036E000000808F8000000000020203F2020000013
:1036F0008080808080808000203F20003F20003F2D
:103700008080008080800000203F210000203F203A
:103710000000808080800000001F202020201F00EB
:10372000808000808000000080FFA12020110E001A
:103730000000008080808000000E112020A0FF800B
:10374000808080008080800020203F2120000100B8
:10375000000080808080800000332424242419000D
:10376000008080E0808000000000001F202000001A
:103770008080000000808000001F202020103F205B
:10378000808080000080808000010E3008060100EB
:1037900080800080008080800F300C030C300F0090
:1037A00000808000808080000020312E0E312000BB
:1037B000808080000080808080818E7018060100EB
:1037C00000808080808080000021302C2221300009
:1037D00000000000807C020200000000003F40402A
:1037E0000002027C800000000040403F000000001A
:1037F00000000000FF00000000000000FF000000CB
:10380000109453321E325210007E4242427E00001B
:1038100000000000000000000000000000000000A8
:103820000000000000000000000000000000000098
:103830000000000000000000000000000000000088
:103840000000000000000000000000000000000078
:103850000000000000000000000000000000000068
:103860000000000000000000000000000000000058
:103870000000000000000000000000000000000048
:103880000000000000000000000000000000000038
:103890000000000000000000000000000000000028
:1038A0000000000000000000000000000000000018
:1038B0000000000000000000000000000000000008
:1038C00000000000000000000000000000000000F8
:1038D00000000000000000000000000000000000E8
:1038E00000000000000000000000000000000000D8
:1038F00000000000000000000000000000000000C8
:103900000000FF49494949494949FF0000000000BA
:1039100000000000000000000000000000000000A7
:103920000000000000000000000000000000000097
:103930000000000000000000000000000000000087
:103940000000000000000000000000000000000077
:103950000000000000000000000000000000000067
:103960000000000000000000000000000000000057
:103970000000000000000000000000000000000047
:103980000000000000000000000000000000000037
:103990000000000000000000000000000000000027
:1039A0000000000000000000000000000000000017
:1039B0000000000000000000000000000000000007
:1039C00000000000000000000000000000000000F7
:1039D00000000000000000000000000000000000E7
:1039E00000000000000000000000000000000000D7
:1039F000000000000000000000000000000008CCF3
:103A00004A49484ACC18007F88888482E000000038
:103A100000000000000000000000000000000000A6
:103A20000000000000000000000000000000000096
:103A30000000000000000000000000000000000086
:103A40000000000000000000000000000000000076
:103A50000000000000000000000000000000000066
:103A60000000000000000000000000000000000056
:103A70000000000000000000000000000000000046
:103A80000000000000000000000000000000000036
:103A90000000000000000000000000000000000026
:103AA0000000000000000000000000000000000016
:103AB0000000000000000000000000000000000006
:103AC00000000000000000000000000000000000F6
:103AD00000000000000000000000000000000000E6
:103AE00000000000000000000000000000000000D6
:103AF0000000000000000000000000000000FF12B5
:103B00001252927F00007E88888482E000000000CC
:103B100000000000000000000000000000000000A5
:103B20000000000000000000000000000000000095
:103B30000000000000000000000000000000000085
:103B40000000000000000000000000000000000075
:103B50000000000000000000000000000000000065
:103B60000000000000000000000000000000000055
:103B70000000000000000000000000000000000045
:103B80000000000000000000000000000000000035
:103B90000000000000000000000000000000000025
:103BA0000000000000000000000000000000000015
:103BB0000000000000000000000000000000000005
:103BC00000000000000000000000000000000000F5
:103BD00000000000000000000000000000000000E5
:103BE00000000000000000000000000000000000D5
:103BF0000000000000000000000000001088C43336
:103C000000FE12D252527F5151D11000000000002C
:103C100000000000000000000000000000000000A4
:103C20000000000000000000000000000000000094
:103C30000000000000000000000000000000000084
:103C40000000000000000000000000000000000074
:103C50000000000000000000000000000000000064
:103C60000000000000000000000000000000000054
:103C70000000000000000000000000000000000044
:103C80000000000000000000000000000000000034
:103C90000000000000000000000000000000000024
:103CA0000000000000000000000000000000000014
:103CB0000000000000000000000000000000000004
:103CC00000000000000000000000000000000000F4
:103CD00000000000000000000000000000000000E4
:103CE00000000000000000000000000000000000D4
:103CF00000000000000000000000000100FF403054
:103D00000F00FF4A4A4A4A4AFF0000000000000034
:103D100000000000000000000000000000000000A3
:103D20000000000000000000000000000000000093
:103D30000000000000000000000000000000000083
:103D40000000000000000000000000000000000073
:103D50000000000000000000000000000000000063
:103D60000000000000000000000000000000000053
:103D70000000000000000000000000000000000043
:103D80000000000000000000000000000000000033
:103D90000000000000000000000000000000000023
:103DA0000000000000000000000000000000000013
:103DB0000000000000000000000000000000000003
:103DC00000000000000000000000000000000000F3
:103DD00000000000000000000000000000000000E3
:103DE00000000000000000000000000000000000D3
:103DF00000000000000000000000404042CC00082D
:103E0000C808F8090EF80848880000000000000003
:103E100000000000000000000000000000000000A2
:103E20000000000000000000000000000000000092
:103E30000000000000000000000000000000000082
:103E40000000000000000000000000000000000072
:103E50000000000000000000000000000000000062
:103E60000000000000000000000000000000000052
:103E70000000000000000000000000000000000042
:103E80000000000000000000000000000000000032
:103E90000000000000000000000000000000000022
:103EA0000000000000000000000000000000000012
:103EB0000000000000000000000000000000000002
:103EC00000000000000000000000000000000000F2
:103ED00000000000000000000000000000000000E2
:103EE00000000000000000000000000000000000D2
:103EF0000000000000000000000040201F2051488A
:103F0000464148504F404041000000000000000082
:103F100000000000000000000000000000000000A1
:103F20000000000000000000000000000000000091
:103F30000000000000000000000000000000000081
:103F40000000000000000000000000000000000071
:103F50000000000000000000000000000000000061
:103F60000000000000000000000000000000000051
:103F70000000000000000000000000000000000041
:103F80000000000000000000000000000000000031
:103F90000000000000000000000000000000000021
:103FA0000000000000000000000000000000000011
:103FB0000000000000000000000000000000000001
:103FC00000000000000000000000000000000000F1
:103FD00000000000000000000000000000000000E1
:103FE00000000000000000000000000000000000D1
:103FF00000000000000000001060028C00FE02F2D1
:1040000002FE00F800FF00000000000000000000B9
:1040100000000000000000000000000000000000A0
:104020000000000000000000000000000000000090
:104030000000000000000000000000000000000080
:104040000000000000000000000000000000000070
:104050000000000000000000000000000000000060
:104060000000000000000000000000000000000050
:104070000000000000000000000000000000000040
:104080000000000000000000000000000000000030
:104090000000000000000000000000000000000020
:1040A0000000000000000000000000000000000010
:1040B0000000000000000000000000000000000000
:1040C00000000000000000000000000000000000F0
:1040D00000000000000000000000000000000000E0
:1040E00000000000000000000000000000000000D0
:1040F0000000000000000004047E018047300F1023
:10410000270047807F000000000000000000000042
:10411000000000000000000000000000000000009F
:10412000000000000000000000000000000000008F
:10413000000000000000000000000000000000007F
:10414000000000000000000000000000000000006F
:10415000000000000000000000000000000000005F
:10416000000000000000000000000000000000004F
:10417000000000000000000000000000000000003F
:10418000000000000000000000000000000000002F
:10419000000000000000000000000000000000001F
:1041A000000000000000000000000000000000000F
:1041B00000000000000000000000000000000000FF
:1041C00000000000000000000000000000000000EF
:1041D00000000000000000000000000000000000DF
:1041E00000000000000000000000000000000000CF
:1041F0000000000000001060028C0000FE9292920D
:104200009292FE000000000000000000000000008C
:10421000000000000000000000000000000000009E
:10422000000000000000000000000000000000008E
:10423000000000000000000000000000000000007E
:10424000000000000000000000000000000000006E
:10425000000000000000000000000000000000005E
:10426000000000000000000000000000000000004E
:10427000000000000000000000000000000000003E
:10428000000000000000000000000000000000002E
:10429000000000000000000000000000000000001E
:1042A000000000000000000000000000000000000E
:1042B00000000000000000000000000000000000FE
:1042C00000000000000000000000000000000000EE
:1042D00000000000000000000000000000000000DE
:1042E00000000000000000000000000000000000CE
:1042F000000000000004047E01407E42427E427EB7
:1043000042427E400000000000000000000000006B
:10431000000000000000000000000000000000009D
:10432000000000000000000000000000000000008D
:10433000000000000000000000000000000000007D
:10434000000000000000000000000000000000006D
:10435000000000000000000000000000000000005D
:10436000000000000000000000000000000000004D
:10437000000000000000000000000000000000003D
:10438000000000000000000000000000000000002D
:10439000000000000000000000000000000000001D
:1043A000000000000000000000000000000000000D
:1043B00000000000000000000000000000000000FD
:1043C00000000000000000000000000000000000ED
:1043D00000000000000000000000000000000000DD
:1043E00000000000000000000000000000000000CD
:1043F000000000001010D0FF901000FE020202FE2C
:1044000000000000000000000000000000000000AC
:10441000000000000000000000000000000000009C
:10442000000000000000000000000000000000008C
:10443000000000000000000000000000000000007C
:10444000000000000000000000000000000000006C
:10445000000000000000000000000000000000005C
:10446000000000000000000000000000000000004C
:10447000000000000000000000000000000000003C
:10448000000000000000000000000000000000002C
:10449000000000000000000000000000000000001C
:1044A000000000000000000000000000000000000C
:1044B00000000000000000000000000000000000FC
:1044C00000000000000000000000000000000000EC
:1044D00000000000000000000000000000000000DC
:1044E00000000000000000000000000000000000CC
:1044F000000000040300FF0083601F0000003F4035
:1045000040780000000000000000000000000000F3
:10451000000000000000000000000000000000009B
:10452000000000000000000000000000000000008B
:10453000000000000000000000000000000000007B
:10454000000000000000000000000000000000006B
:10455000000000000000000000000000000000005B
:10456000000000000000000000000000000000004B
:10457000000000000000000000000000000000003B
:10458000000000000000000000000000000000002B
:10459000000000000000000000000000000000001B
:1045A000000000000000000000000000000000000B
:1045B00000000000000000000000000000000000FB
:1045C00000000000000000000000000000000000EB
:1045D00000000000000000000000000000000000DB
:1045E00000000000000000000000000000000000CB
:1045F000000080809E9292929EE0809EB2D2929E17
:10460000800000000000000000000000000000002A
:10461000000000000000000000000000000000009A
:10462000000000000000000000000000000000008A
:10463000000000000000000000000000000000007A
:10464000000000000000000000000000000000006A
:10465000000000000000000000000000000000005A
:10466000000000000000000000000000000000004A
:10467000000000000000000000000000000000003A
:10468000000000000000000000000000000000002A
:10469000000000000000000000000000000000001A
:1046A000000000000000000000000000000000000A
:1046B00000000000000000000000000000000000FA
:1046C00000000000000000000000000000000000EA
:1046D00000000000000000000000000000000000DA
:1046E00000000000000000000000000000000000CA
:1046F000000808F4949292F10001F2929494F80860
:1047000000000000000000000000000000000000A9
:104710000000000000000000000000000000000099
:104720000000000000000000000000000000000089
:104730000000000000000000000000000000000079
:104740000000000000000000000000000000000069
:104750000000000000000000000000000000000059
:104760000000000000000000000000000000000049
:104770000000000000000000000000000000000039
:104780000000000000000000000000000000000029
:104790000000000000000000000000000000000019
:1047A0000000000000000000000000000000000009
:1047B00000000000000000000000000000000000F9
:1047C00000000000000000000000000000000000E9
:1047D00000000000000000000000000000000000D9
:1047E00000000000000000000000000000000000C9
:1047F000000000000000C03FC000000000000000FA
:1048000000000000000000000000000000000000A8
:104810000000000000000000000000000000000098
:104820000000000000000000000000000000000088
:104830000000000000000000000000000000000078
:104840000000000000000000000000000000000068
:104850000000000000000000000000000000000058
:104860000000000000000000000000000000000048
:104870000000000000000000000000000000000038
:104880000000000000000000000000000000000028
:104890000000000000000000000000000000000018
:1048A0000000000000000000000000000000000008
:1048B00000000000000000000000000000000000F8
:1048C00000000000000000000000000000000000E8
:1048D00000000000000000000000000000000000D8
:1048E0000000000000000000000000000000008048
:1048F0004020100C03000000030C1020408000003A
:1049000000000000000000000000000000000000A7
:104910000000000000000000000000000000000097
:104920000000000000000000000000000000000087
:104930000000000000000000000000000000000077
:104940000000000000000000000000000000000067
:104950000000000000000000000000000000000057
:104960000000000000000000000000000000000047
:104970000000000000000000000000000000000037
:104980000000000000000000000000000000000027
:104990000000000000000000000000000000000017
:1049A0000000000000000000000000000000000007
:1049B00000000000000000000000000000000000F7
:1049C00000000000000000000000000000000000E7
:1049D00000000000000000000000000000000000D7
:1049E0000000000000000000000000000000004087
:1049F00042445840407F40405048C60000000000FC
:104A000000000000000000000000000000000000A6
:104A10000000000000000000000000000000000096
:104A20000000000000000000000000000000000086
:104A30000000000000000000000000000000000076
:104A40000000000000000000000000000000000066
:104A50000000000000000000000000000000000056
:104A60000000000000000000000000000000000046
:104A70000000000000000000000000000000000036
:104A80000000000000000000000000000000000026
:104A90000000000000000000000000000000000016
:104AA0000000000000000000000000000000000006
:104AB00000000000000000000000000000000000F6
:104AC00000000000000000000000000000000000E6
:104AD00000000000000000000000000000000000D6
:104AE0000000000000000000000000000000404442
:104AF000444444444444444444FF00000000000053
:104B000000000000000000000000000000000000A5
:104B10000000000000000000000000000000000095
:104B20000000000000000000000000000000000085
:104B30000000000000000000000000000000000075
:104B40000000000000000000000000000000000065
:104B50000000000000000000000000000000000055
:104B60000000000000000000000000000000000045
:104B70000000000000000000000000000000000035
:104B80000000000000000000000000000000000025
:104B90000000000000000000000000000000000015
:104BA0000000000000000000000000000000000005
:104BB00000000000000000000000000000000000F5
:104BC00000000000000000000000000000000000E5
:104BD00000000000000000000000000000000000D5
:104BE0000000000000000000000000000808E829A4
:104BF0002E28E80808C80C0BE80808000000000090
:104C000000000000000000000000000000000000A4
:104C10000000000000000000000000000000000094
:104C20000000000000000000000000000000000084
:104C30000000000000000000000000000000000074
:104C40000000000000000000000000000000000064
:104C50000000000000000000000000000000000054
:104C60000000000000000000000000000000000044
:104C70000000000000000000000000000000000034
:104C80000000000000000000000000000000000024
:104C90000000000000000000000000000000000014
:104CA0000000000000000000000000000000000004
:104CB00000000000000000000000000000000000F4
:104CC00000000000000000000000000000000000E4
:104CD00000000000000000000000000000000000D4
:104CE00000000000000000000000000000FF094973
:104CF000897F00000F40807F00000000000000005E
:104D000000000000000000000000000000000000A3
:104D10000000000000000000000000000000000093
:104D20000000000000000000000000000000000083
:104D30000000000000000000000000000000000073
:104D40000000000000000000000000000000000063
:104D50000000000000000000000000000000000053
:104D60000000000000000000000000000000000043
:104D70000000000000000000000000000000000033
:104D80000000000000000000000000000000000023
:104D90000000000000000000000000000000000013
:104DA0000000000000000000000000000000000003
:104DB00000000000000000000000000000000000F3
:104DC00000000000000000000000000000000000E3
:104DD00000000000000000000000000000000000D3
:104DE00000000000000000000000003E22E2223E21
:104DF00000FE2222222222E2020000000000000027
:104E000000000000000000000000000000000000A2
:104E10000000000000000000000000000000000092
:104E20000000000000000000000000000000000082
:104E30000000000000000000000000000000000072
:104E40000000000000000000000000000000000062
:104E50000000000000000000000000000000000052
:104E60000000000000000000000000000000000042
:104E70000000000000000000000000000000000032
:104E80000000000000000000000000000000000022
:104E90000000000000000000000000000000000012
:104EA0000000000000000000000000000000000002
:104EB00000000000000000000000000000000000F2
:104EC00000000000000000000000000000000000E2
:104ED00000000000000000000000000000000000D2
:104EE000000000000000000000203F201F11110002
:104EF0007F44444444444740000000000000000058
:104F000000000000000000000000000000000000A1
:104F10000000000000000000000000000000000091
:104F20000000000000000000000000000000000081
:104F30000000000000000000000000000000000071
:104F40000000000000000000000000000000000061
:104F50000000000000000000000000000000000051
:104F60000000000000000000000000000000000041
:104F70000000000000000000000000000000000031
:104F80000000000000000000000000000000000021
:104F90000000000000000000000000000000000011
:104FA0000000000000000000000000000000000001
:104FB00000000000000000000000000000000000F1
:104FC00000000000000000000000000000000000E1
:104FD00000000000000000000000000000000000D1
:104FE0000000000000000000040404F484D4A5A61E
:104FF000A4D484F4040404000000000000000000B5
:1050000000000000000000000000000000000000A0
:105010000000000000000000000000000000000090
:105020000000000000000000000000000000000080
:105030000000000000000000000000000000000070
:105040000000000000000000000000000000000060
:105050000000000000000000000000000000000050
:105060000000000000000000000000000000000040
:105070000000000000000000000000000000000030
:105080000000000000000000000000000000000020
:105090000000000000000000000000000000000010
:1050A0000000000000000000000000000000000000
:1050B00000000000000000000000000000000000F0
:1050C00000000000000000000000000000000000E0
:1050D00000000000000000000000000000000000D0
:1050E0000000000000000000FE0202123A16131237
:1050F0001A3242827E000000000000000000000022
:10510000000000000000000000000000000000009F
:10511000000000000000000000000000000000008F
:10512000000000000000000000000000000000007F
:10513000000000000000000000000000000000006F
:10514000000000000000000000000000000000005F
:10515000000000000000000000000000000000004F
:10516000000000000000000000000000000000003F
:10517000000000000000000000000000000000002F
:10518000000000000000000000000000000000001F
:10519000000000000000000000000000000000000F
:1051A00000000000000000000000000000000000FF
:1051B00000000000000000000000000000000000EF
:1051C00000000000000000000000000000000000DF
:1051D00000000000000000000000000000000000CF
:1051E0000000000000001060028C0000FE9292920D
:1051F0009292FE000000000000000000000000008D
:10520000000000000000000000000000000000009E
:10521000000000000000000000000000000000008E
:10522000000000000000000000000000000000007E
:10523000000000000000000000000000000000006E
:10524000000000000000000000000000000000005E
:10525000000000000000000000000000000000004E
:10526000000000000000000000000000000000003E
:10527000000000000000000000000000000000002E
:10528000000000000000000000000000000000001E
:10529000000000000000000000000000000000000E
:1052A00000000000000000000000000000000000FE
:1052B00000000000000000000000000000000000EE
:1052C00000000000000000000000000000000000DE
:1052D00000000000000000000000000000000000CE
:1052E000000000000004047E01407E42427E427EB7
:1052F00042427E400000000000000000000000006C
:10530000000000000000000000000000000000009D
:10531000000000000000000000000000000000008D
:10532000000000000000000000000000000000007D
:10533000000000000000000000000000000000006D
:10534000000000000000000000000000000000005D
:10535000000000000000000000000000000000004D
:10536000000000000000000000000000000000003D
:10537000000000000000000000000000000000002D
:10538000000000000000000000000000000000001D
:10539000000000000000000000000000000000000D
:1053A00000000000000000000000000000000000FD
:1053B00000000000000000000000000000000000ED
:1053C00000000000000000000000000000000000DD
:1053D00000000000000000000000000000000000CD
:1053E000000000000000FC242424FC252624FC24CA
:1053F0002424040000000000000000000000000061
:10540000000000000000000000000000000000009C
:10541000000000000000000000000000000000008C
:10542000000000000000000000000000000000007C
:10543000000000000000000000000000000000006C
:10544000000000000000000000000000000000005C
:10545000000000000000000000000000000000004C
:10546000000000000000000000000000000000003C
:10547000000000000000000000000000000000002C
:10548000000000000000000000000000000000001C
:10549000000000000000000000000000000000000C
:1054A00000000000000000000000000000000000FC
:1054B00000000000000000000000000000000000EC
:1054C00000000000000000000000000000000000DC
:1054D00000000000000000000000000000000000CC
:1054E00000000040308F80844C55252525554C8088
:1054F00080800000000000000000000000000000AC
:10550000000000000000000000000000000000009B
:10551000000000000000000000000000000000008B
:10552000000000000000000000000000000000007B
:10553000000000000000000000000000000000006B
:10554000000000000000000000000000000000005B
:10555000000000000000000000000000000000004B
:10556000000000000000000000000000000000003B
:10557000000000000000000000000000000000002B
:10558000000000000000000000000000000000001B
:10559000000000000000000000000000000000000B
:1055A00000000000000000000000000000000000FB
:1055B00000000000000000000000000000000000EB
:1055C00000000000000000000000000000000000DB
:1055D00000000000000000000000000000000000CB
:1055E000000002030405060708090A0B0C0D0E0F44
:1055F00010100000185600080000002028000000CD
:10560000C02F00084056000828000020E8040000D1
:10561000D02F000800000000010000001000000072
:10562000AE001040B081FFA1A6A83FC8D300D5802E
:10563000D805D9F1DA12D8308D14AF000024F40067
:04000005080000ED02
:00000001FF
